{
  "abi": [
    {
      "inputs": [],
      "stateMutability": "nonpayable",
      "type": "constructor"
    },
    {
      "inputs": [
        {
          "internalType": "address",
          "name": "spender",
          "type": "address"
        },
        {
          "internalType": "uint256",
          "name": "allowance",
          "type": "uint256"
        },
        {
          "internalType": "uint256",
          "name": "needed",
          "type": "uint256"
        }
      ],
      "name": "ERC20InsufficientAllowance",
      "type": "error"
    },
    {
      "inputs": [
        {
          "internalType": "address",
          "name": "sender",
          "type": "address"
        },
        {
          "internalType": "uint256",
          "name": "balance",
          "type": "uint256"
        },
        {
          "internalType": "uint256",
          "name": "needed",
          "type": "uint256"
        }
      ],
      "name": "ERC20InsufficientBalance",
      "type": "error"
    },
    {
      "inputs": [
        {
          "internalType": "address",
          "name": "approver",
          "type": "address"
        }
      ],
      "name": "ERC20InvalidApprover",
      "type": "error"
    },
    {
      "inputs": [
        {
          "internalType": "address",
          "name": "receiver",
          "type": "address"
        }
      ],
      "name": "ERC20InvalidReceiver",
      "type": "error"
    },
    {
      "inputs": [
        {
          "internalType": "address",
          "name": "sender",
          "type": "address"
        }
      ],
      "name": "ERC20InvalidSender",
      "type": "error"
    },
    {
      "inputs": [
        {
          "internalType": "address",
          "name": "spender",
          "type": "address"
        }
      ],
      "name": "ERC20InvalidSpender",
      "type": "error"
    },
    {
      "anonymous": false,
      "inputs": [
        {
          "indexed": true,
          "internalType": "address",
          "name": "owner",
          "type": "address"
        },
        {
          "indexed": true,
          "internalType": "address",
          "name": "spender",
          "type": "address"
        },
        {
          "indexed": false,
          "internalType": "uint256",
          "name": "value",
          "type": "uint256"
        }
      ],
      "name": "Approval",
      "type": "event"
    },
    {
      "anonymous": false,
      "inputs": [
        {
          "indexed": false,
          "internalType": "address",
          "name": "account",
          "type": "address"
        },
        {
          "indexed": false,
          "internalType": "uint256",
          "name": "value",
          "type": "uint256"
        },
        {
          "indexed": false,
          "internalType": "bytes",
          "name": "data",
          "type": "bytes"
        }
      ],
      "name": "FallBack",
      "type": "event"
    },
    {
      "anonymous": false,
      "inputs": [
        {
          "indexed": false,
          "internalType": "address",
          "name": "account",
          "type": "address"
        },
        {
          "indexed": false,
          "internalType": "uint256",
          "name": "value",
          "type": "uint256"
        }
      ],
      "name": "Receive",
      "type": "event"
    },
    {
      "anonymous": false,
      "inputs": [
        {
          "indexed": false,
          "internalType": "address",
          "name": "account",
          "type": "address"
        },
        {
          "indexed": false,
          "internalType": "uint256",
          "name": "value",
          "type": "uint256"
        }
      ],
      "name": "SwapBackToETH",
      "type": "event"
    },
    {
      "anonymous": false,
      "inputs": [
        {
          "indexed": false,
          "internalType": "address",
          "name": "account",
          "type": "address"
        },
        {
          "indexed": false,
          "internalType": "uint256",
          "name": "value",
          "type": "uint256"
        }
      ],
      "name": "SwapToWETH",
      "type": "event"
    },
    {
      "anonymous": false,
      "inputs": [
        {
          "indexed": true,
          "internalType": "address",
          "name": "from",
          "type": "address"
        },
        {
          "indexed": true,
          "internalType": "address",
          "name": "to",
          "type": "address"
        },
        {
          "indexed": false,
          "internalType": "uint256",
          "name": "value",
          "type": "uint256"
        }
      ],
      "name": "Transfer",
      "type": "event"
    },
    {
      "stateMutability": "payable",
      "type": "fallback"
    },
    {
      "inputs": [
        {
          "internalType": "address",
          "name": "owner",
          "type": "address"
        },
        {
          "internalType": "address",
          "name": "spender",
          "type": "address"
        }
      ],
      "name": "allowance",
      "outputs": [
        {
          "internalType": "uint256",
          "name": "",
          "type": "uint256"
        }
      ],
      "stateMutability": "view",
      "type": "function"
    },
    {
      "inputs": [
        {
          "internalType": "address",
          "name": "spender",
          "type": "address"
        },
        {
          "internalType": "uint256",
          "name": "value",
          "type": "uint256"
        }
      ],
      "name": "approve",
      "outputs": [
        {
          "internalType": "bool",
          "name": "",
          "type": "bool"
        }
      ],
      "stateMutability": "nonpayable",
      "type": "function"
    },
    {
      "inputs": [
        {
          "internalType": "address",
          "name": "account",
          "type": "address"
        }
      ],
      "name": "balanceOf",
      "outputs": [
        {
          "internalType": "uint256",
          "name": "",
          "type": "uint256"
        }
      ],
      "stateMutability": "view",
      "type": "function"
    },
    {
      "inputs": [],
      "name": "decimals",
      "outputs": [
        {
          "internalType": "uint8",
          "name": "",
          "type": "uint8"
        }
      ],
      "stateMutability": "view",
      "type": "function"
    },
    {
      "inputs": [],
      "name": "name",
      "outputs": [
        {
          "internalType": "string",
          "name": "",
          "type": "string"
        }
      ],
      "stateMutability": "view",
      "type": "function"
    },
    {
      "inputs": [
        {
          "internalType": "uint256",
          "name": "amount",
          "type": "uint256"
        }
      ],
      "name": "swapBackToETH",
      "outputs": [],
      "stateMutability": "nonpayable",
      "type": "function"
    },
    {
      "inputs": [],
      "name": "swapToWETH",
      "outputs": [],
      "stateMutability": "payable",
      "type": "function"
    },
    {
      "inputs": [],
      "name": "symbol",
      "outputs": [
        {
          "internalType": "string",
          "name": "",
          "type": "string"
        }
      ],
      "stateMutability": "view",
      "type": "function"
    },
    {
      "inputs": [],
      "name": "totalSupply",
      "outputs": [
        {
          "internalType": "uint256",
          "name": "",
          "type": "uint256"
        }
      ],
      "stateMutability": "view",
      "type": "function"
    },
    {
      "inputs": [
        {
          "internalType": "address",
          "name": "to",
          "type": "address"
        },
        {
          "internalType": "uint256",
          "name": "value",
          "type": "uint256"
        }
      ],
      "name": "transfer",
      "outputs": [
        {
          "internalType": "bool",
          "name": "",
          "type": "bool"
        }
      ],
      "stateMutability": "nonpayable",
      "type": "function"
    },
    {
      "inputs": [
        {
          "internalType": "address",
          "name": "from",
          "type": "address"
        },
        {
          "internalType": "address",
          "name": "to",
          "type": "address"
        },
        {
          "internalType": "uint256",
          "name": "value",
          "type": "uint256"
        }
      ],
      "name": "transferFrom",
      "outputs": [
        {
          "internalType": "bool",
          "name": "",
          "type": "bool"
        }
      ],
      "stateMutability": "nonpayable",
      "type": "function"
    },
    {
      "stateMutability": "payable",
      "type": "receive"
    }
  ],
  "bytecode": {
    "object": "0x60806040523480156200001157600080fd5b506040518060400160405280600d81526020016c2bb930b83832b21022ba3432b960991b815250604051806040016040528060048152602001630ae8aa8960e31b815250816003908162000066919062000123565b50600462000075828262000123565b505050620001ef565b634e487b7160e01b600052604160045260246000fd5b600181811c90821680620000a957607f821691505b602082108103620000ca57634e487b7160e01b600052602260045260246000fd5b50919050565b601f8211156200011e57600081815260208120601f850160051c81016020861015620000f95750805b601f850160051c820191505b818110156200011a5782815560010162000105565b5050505b505050565b81516001600160401b038111156200013f576200013f6200007e565b620001578162000150845462000094565b84620000d0565b602080601f8311600181146200018f5760008415620001765750858301515b600019600386901b1c1916600185901b1785556200011a565b600085815260208120601f198616915b82811015620001c0578886015182559484019460019091019084016200019f565b5085821015620001df5787850151600019600388901b60f8161c191681555b5050505050600190811b01905550565b610ae180620001ff6000396000f3fe6080604052600436106100a05760003560e01c806349e5be3a1161006457806349e5be3a146101dd57806370a08231146101fd57806395d89b4114610233578063a9059cbb14610248578063dd62ed3e14610268578063ee8b333f146102ae576100df565b806306fdde0314610127578063095ea7b31461015257806318160ddd1461018257806323b872dd146101a1578063313ce567146101c1576100df565b366100df57604080513381523460208201527fd6717f327e0cb88b4a97a7f67a453e9258252c34937ccbdd86de7cb840e7def3910160405180910390a1005b7fbdc001036fc46a66ae17116838224852b77e97398549f39b4df48f18598fd1e4333460003660405161011594939291906108ca565b60405180910390a16101256102b2565b005b34801561013357600080fd5b5061013c61034b565b6040516101499190610912565b60405180910390f35b34801561015e57600080fd5b5061017261016d36600461097c565b6103dd565b6040519015158152602001610149565b34801561018e57600080fd5b506002545b604051908152602001610149565b3480156101ad57600080fd5b506101726101bc3660046109a6565b6103f7565b3480156101cd57600080fd5b5060405160128152602001610149565b3480156101e957600080fd5b506101256101f83660046109e2565b61041b565b34801561020957600080fd5b506101936102183660046109fb565b6001600160a01b031660009081526020819052604090205490565b34801561023f57600080fd5b5061013c610553565b34801561025457600080fd5b5061017261026336600461097c565b610562565b34801561027457600080fd5b50610193610283366004610a1d565b6001600160a01b03918216600090815260016020908152604080832093909416825291909152205490565b6101255b600034116103075760405162461bcd60e51b815260206004820152601960248201527f56616c7565206d75737420626967676572207468616e20302e0000000000000060448201526064015b60405180910390fd5b6103113334610570565b604080513381523460208201527fecc142e29728ec0a87e21dcb22a8f038fd5808338195ca0f2d4bfdd3e2bc11f5910160405180910390a1565b60606003805461035a90610a50565b80601f016020809104026020016040519081016040528092919081815260200182805461038690610a50565b80156103d35780601f106103a8576101008083540402835291602001916103d3565b820191906000526020600020905b8154815290600101906020018083116103b657829003601f168201915b5050505050905090565b6000336103eb8185856105aa565b60019150505b92915050565b6000336104058582856105bc565b61041085858561063a565b506001949350505050565b33600090815260208190526040902054818110156104735760405162461bcd60e51b815260206004820152601560248201527424b739bab33334b1b4b2b73a103130b630b731b29760591b60448201526064016102fe565b61047d3383610699565b604051600090339084908381818185875af1925050503d80600081146104bf576040519150601f19603f3d011682016040523d82523d6000602084013e6104c4565b606091505b50509050806105155760405162461bcd60e51b815260206004820152601860248201527f53776170206261636b20746f20455448204661696c65642e000000000000000060448201526064016102fe565b60408051338152602081018590527f5f0cb0fa9b9a0bdff2c81de328a30b207351beea60704da908e8c1324be9b1c7910160405180910390a1505050565b60606004805461035a90610a50565b6000336103eb81858561063a565b6001600160a01b03821661059a5760405163ec442f0560e01b8152600060048201526024016102fe565b6105a6600083836106cb565b5050565b6105b783838360016107f5565b505050565b6001600160a01b038381166000908152600160209081526040808320938616835292905220546000198114610634578181101561062557604051637dc7a0d960e11b81526001600160a01b038416600482015260248101829052604481018390526064016102fe565b610634848484840360006107f5565b50505050565b6001600160a01b03831661066457604051634b637e8f60e11b8152600060048201526024016102fe565b6001600160a01b03821661068e5760405163ec442f0560e01b8152600060048201526024016102fe565b6105b78383836106cb565b6001600160a01b0382166106c357604051634b637e8f60e11b8152600060048201526024016102fe565b6105a6826000835b6001600160a01b0383166106f65780600260008282546106eb9190610a8a565b909155506107689050565b6001600160a01b038316600090815260208190526040902054818110156107495760405163391434e360e21b81526001600160a01b038516600482015260248101829052604481018390526064016102fe565b6001600160a01b03841660009081526020819052604090209082900390555b6001600160a01b038216610784576002805482900390556107a3565b6001600160a01b03821660009081526020819052604090208054820190555b816001600160a01b0316836001600160a01b03167fddf252ad1be2c89b69c2b068fc378daa952ba7f163c4a11628f55a4df523b3ef836040516107e891815260200190565b60405180910390a3505050565b6001600160a01b03841661081f5760405163e602df0560e01b8152600060048201526024016102fe565b6001600160a01b03831661084957604051634a1406b160e11b8152600060048201526024016102fe565b6001600160a01b038085166000908152600160209081526040808320938716835292905220829055801561063457826001600160a01b0316846001600160a01b03167f8c5be1e5ebec7d5bd14f71427d1e84f3dd0314c0f7b2291e5b200ac8c7c3b925846040516108bc91815260200190565b60405180910390a350505050565b6001600160a01b0385168152602081018490526060604082018190528101829052818360808301376000818301608090810191909152601f909201601f191601019392505050565b600060208083528351808285015260005b8181101561093f57858101830151858201604001528201610923565b506000604082860101526040601f19601f8301168501019250505092915050565b80356001600160a01b038116811461097757600080fd5b919050565b6000806040838503121561098f57600080fd5b61099883610960565b946020939093013593505050565b6000806000606084860312156109bb57600080fd5b6109c484610960565b92506109d260208501610960565b9150604084013590509250925092565b6000602082840312156109f457600080fd5b5035919050565b600060208284031215610a0d57600080fd5b610a1682610960565b9392505050565b60008060408385031215610a3057600080fd5b610a3983610960565b9150610a4760208401610960565b90509250929050565b600181811c90821680610a6457607f821691505b602082108103610a8457634e487b7160e01b600052602260045260246000fd5b50919050565b808201808211156103f157634e487b7160e01b600052601160045260246000fdfea264697066735822122084e1d608ba87d88632549393ebaa25a9f8bd6e6d67556a01e00cf8cc9ea94f2664736f6c63430008150033",
    "linkReferences": {}
  },
  "methodIdentifiers": {
    "allowance(address,address)": "dd62ed3e",
    "approve(address,uint256)": "095ea7b3",
    "balanceOf(address)": "70a08231",
    "decimals()": "313ce567",
    "name()": "06fdde03",
    "swapBackToETH(uint256)": "49e5be3a",
    "swapToWETH()": "ee8b333f",
    "symbol()": "95d89b41",
    "totalSupply()": "18160ddd",
    "transfer(address,uint256)": "a9059cbb",
    "transferFrom(address,address,uint256)": "23b872dd"
  },
  "id": 26
}